{
  "contractName": "MusicalChairs",
  "abi": [
    {
      "inputs": [
        {
          "internalType": "uint256",
          "name": "_blockIndex",
          "type": "uint256"
        }
      ],
      "stateMutability": "nonpayable",
      "type": "constructor"
    },
    {
      "anonymous": false,
      "inputs": [
        {
          "indexed": false,
          "internalType": "address",
          "name": "winner",
          "type": "address"
        }
      ],
      "name": "ClaimTreasure",
      "type": "event"
    },
    {
      "anonymous": false,
      "inputs": [
        {
          "indexed": false,
          "internalType": "address",
          "name": "player",
          "type": "address"
        },
        {
          "indexed": false,
          "internalType": "uint256",
          "name": "amount",
          "type": "uint256"
        }
      ],
      "name": "PlayMusic",
      "type": "event"
    },
    {
      "inputs": [],
      "name": "ethPool",
      "outputs": [
        {
          "internalType": "uint256",
          "name": "",
          "type": "uint256"
        }
      ],
      "stateMutability": "view",
      "type": "function",
      "constant": true
    },
    {
      "inputs": [],
      "name": "winner",
      "outputs": [
        {
          "internalType": "address payable",
          "name": "",
          "type": "address"
        }
      ],
      "stateMutability": "view",
      "type": "function",
      "constant": true
    },
    {
      "inputs": [],
      "name": "press_button",
      "outputs": [],
      "stateMutability": "payable",
      "type": "function",
      "payable": true
    },
    {
      "inputs": [],
      "name": "claim_treasure",
      "outputs": [
        {
          "internalType": "bool",
          "name": "success",
          "type": "bool"
        }
      ],
      "stateMutability": "nonpayable",
      "type": "function"
    }
  ],
  "bytecode": "0x608060405234801561001057600080fd5b506040516104f03803806104f08339818101604052602081101561003357600080fd5b810190808051906020019092919050505080600081905550506104958061005b6000396000f3fe60806040526004361061003f5760003560e01c80630736783d14610044578063aef4da6b1461004e578063dfbf53ae1461007b578063f16673a4146100bc575b600080fd5b61004c6100e7565b005b34801561005a57600080fd5b506100636101de565b60405180821515815260200191505060405180910390f35b34801561008757600080fd5b50610090610412565b604051808273ffffffffffffffffffffffffffffffffffffffff16815260200191505060405180910390f35b3480156100c857600080fd5b506100d1610438565b6040518082815260200191505060405180910390f35b60015460005411610160576040517f08c379a00000000000000000000000000000000000000000000000000000000081526004018080602001828103825260148152602001807f4d7573696320616c726561647920656e6465642e00000000000000000000000081525060200191505060405180910390fd5b7fd55b2eacd694886facccd487acfd0f4dd945ce9aec46c0633f59799595b6458a3334604051808373ffffffffffffffffffffffffffffffffffffffff1681526020018281526020019250505060405180910390a1600160008082825401925050819055506002600054016001819055503460025401600281905550565b600060015460005410610259576040517f08c379a00000000000000000000000000000000000000000000000000000000081526004018080602001828103825260148152602001807f4d75736963206e6f742079657420656e6465642e00000000000000000000000081525060200191505060405180910390fd5b600360149054906101000a900460ff16156102bf576040517f08c379a000000000000000000000000000000000000000000000000000000000815260040180806020018281038252602181526020018061043f6021913960400191505060405180910390fd5b600154600054141561040a5733600360006101000a81548173ffffffffffffffffffffffffffffffffffffffff021916908373ffffffffffffffffffffffffffffffffffffffff1602179055507ffabf7e1c2ff2dfd151b0ceeafcf0974c0638b610dd3fee04f263d2fef368d0dc600360009054906101000a900473ffffffffffffffffffffffffffffffffffffffff16604051808273ffffffffffffffffffffffffffffffffffffffff16815260200191505060405180910390a1600360009054906101000a900473ffffffffffffffffffffffffffffffffffffffff1673ffffffffffffffffffffffffffffffffffffffff166108fc6002549081150290604051600060405180830381858888f193505050501580156103e5573d6000803e3d6000fd5b506001600360146101000a81548160ff0219169083151502179055506001905061040f565b600090505b90565b600360009054906101000a900473ffffffffffffffffffffffffffffffffffffffff1681565b6002548156fe6d75736963456e642068617320616c7265616479206265656e2063616c6c65642ea2646970667358221220737f6cfe526f67194fb292840f35eb600b45320ea51654050259894c9d752e6264736f6c63430007000033",
  "immutableReferences": {},
  "source": "// SPDX-License-Identifier: MIT\npragma solidity >=0.7.0 <0.9.0;\n\ncontract MusicalChairs {\n\n  uint blockIndex;\n  uint private blockWinner;\n  uint public ethPool;\n  address payable public winner;\n  bool ended;\n\n  event PlayMusic(address player, uint amount);\n  event ClaimTreasure(address winner);\n\n  constructor(\n        uint _blockIndex\n    ) {\n        blockIndex = _blockIndex;\n    }   \n\n  /// Confirm to press the button.\n  function press_button() public payable {\n    require(blockIndex > blockWinner, \"Music already ended.\");\n\n    emit PlayMusic(msg.sender, msg.value);\n\n    blockIndex += 1;\n    blockWinner = blockIndex + 2;\n    ethPool = ethPool + msg.value;\n  }\n\n  function claim_treasure() public returns (bool success) {\n    require(blockIndex < blockWinner, \"Music not yet ended.\");\n    require(!ended, \"musicEnd has already been called.\");\n\n    if (blockIndex == blockWinner) {\n      winner = msg.sender;\n      emit ClaimTreasure(winner);\n\n      winner.transfer(ethPool);\n      ended = true;\n      return true;\n    }\n\n    return false;\n  }\n}",
  "sourcePath": "/Users/john.marquez/project-space/musical chairs/contracts/MusicalChairs.sol",
  "compiler": {
    "name": "solc",
    "version": "0.7.0+commit.9e61f92b.Emscripten.clang"
  },
  "schemaVersion": "3.3.3",
  "updatedAt": "2021-02-05T02:53:32.484Z",
  "networkType": "ethereum",
  "devdoc": {
    "kind": "dev",
    "methods": {},
    "version": 1
  },
  "userdoc": {
    "kind": "user",
    "methods": {
      "press_button()": {
        "notice": "Confirm to press the button."
      }
    },
    "version": 1
  }
}